{
  "_format": "hh-sol-artifact-1",
  "contractName": "Staker",
  "sourceName": "contracts/Staker.sol",
  "abi": [
    {
      "inputs": [
        {
          "internalType": "address",
          "name": "exampleExternalContractAddress",
          "type": "address"
        }
      ],
      "stateMutability": "nonpayable",
      "type": "constructor"
    },
    {
      "anonymous": false,
      "inputs": [
        {
          "indexed": true,
          "internalType": "address",
          "name": "sender",
          "type": "address"
        },
        {
          "indexed": false,
          "internalType": "uint256",
          "name": "amount",
          "type": "uint256"
        }
      ],
      "name": "Execute",
      "type": "event"
    },
    {
      "anonymous": false,
      "inputs": [
        {
          "indexed": false,
          "internalType": "address",
          "name": "",
          "type": "address"
        },
        {
          "indexed": false,
          "internalType": "uint256",
          "name": "",
          "type": "uint256"
        }
      ],
      "name": "Received",
      "type": "event"
    },
    {
      "anonymous": false,
      "inputs": [
        {
          "indexed": true,
          "internalType": "address",
          "name": "sender",
          "type": "address"
        },
        {
          "indexed": false,
          "internalType": "uint256",
          "name": "amount",
          "type": "uint256"
        }
      ],
      "name": "Stake",
      "type": "event"
    },
    {
      "inputs": [
        {
          "internalType": "address",
          "name": "",
          "type": "address"
        }
      ],
      "name": "balances",
      "outputs": [
        {
          "internalType": "uint256",
          "name": "",
          "type": "uint256"
        }
      ],
      "stateMutability": "view",
      "type": "function"
    },
    {
      "inputs": [],
      "name": "claimDeadline",
      "outputs": [
        {
          "internalType": "uint256",
          "name": "",
          "type": "uint256"
        }
      ],
      "stateMutability": "view",
      "type": "function"
    },
    {
      "inputs": [],
      "name": "claimPeriodLeft",
      "outputs": [
        {
          "internalType": "uint256",
          "name": "claimPeriodLeft",
          "type": "uint256"
        }
      ],
      "stateMutability": "view",
      "type": "function"
    },
    {
      "inputs": [],
      "name": "currentBlock",
      "outputs": [
        {
          "internalType": "uint256",
          "name": "",
          "type": "uint256"
        }
      ],
      "stateMutability": "view",
      "type": "function"
    },
    {
      "inputs": [
        {
          "internalType": "address",
          "name": "",
          "type": "address"
        }
      ],
      "name": "depositTimestamps",
      "outputs": [
        {
          "internalType": "uint256",
          "name": "",
          "type": "uint256"
        }
      ],
      "stateMutability": "view",
      "type": "function"
    },
    {
      "inputs": [],
      "name": "exampleExternalContract",
      "outputs": [
        {
          "internalType": "contract ExampleExternalContract",
          "name": "",
          "type": "address"
        }
      ],
      "stateMutability": "view",
      "type": "function"
    },
    {
      "inputs": [],
      "name": "execute",
      "outputs": [],
      "stateMutability": "nonpayable",
      "type": "function"
    },
    {
      "inputs": [],
      "name": "killTime",
      "outputs": [],
      "stateMutability": "nonpayable",
      "type": "function"
    },
    {
      "inputs": [],
      "name": "rewardRatePerSecond",
      "outputs": [
        {
          "internalType": "uint256",
          "name": "",
          "type": "uint256"
        }
      ],
      "stateMutability": "view",
      "type": "function"
    },
    {
      "inputs": [],
      "name": "stake",
      "outputs": [],
      "stateMutability": "payable",
      "type": "function"
    },
    {
      "inputs": [],
      "name": "withdraw",
      "outputs": [],
      "stateMutability": "nonpayable",
      "type": "function"
    },
    {
      "inputs": [],
      "name": "withdrawalDeadline",
      "outputs": [
        {
          "internalType": "uint256",
          "name": "",
          "type": "uint256"
        }
      ],
      "stateMutability": "view",
      "type": "function"
    },
    {
      "inputs": [],
      "name": "withdrawalTimeLeft",
      "outputs": [
        {
          "internalType": "uint256",
          "name": "withdrawalTimeLeft",
          "type": "uint256"
        }
      ],
      "stateMutability": "view",
      "type": "function"
    },
    {
      "stateMutability": "payable",
      "type": "receive"
    }
  ],
  "bytecode": "0x608060405261000f4260786100a3565b60025561001d4260f06100a3565b600355600060045534801561003157600080fd5b50604051610af4380380610af483398101604081905261005091610075565b600580546001600160a01b0319166001600160a01b03929092169190911790556100c7565b600060208284031215610086578081fd5b81516001600160a01b038116811461009c578182fd5b9392505050565b600082198211156100c257634e487b7160e01b81526011600452602481fd5b500190565b610a1e806100d66000396000f3fe6080604052600436106100c65760003560e01c80635d773b2c1161007f578063bcb8e81311610059578063bcb8e8131461022a578063be31069714610240578063e12ed13c14610256578063f78941761461026c57600080fd5b80635d773b2c146101c157806361461954146101dd5780639f75f227146101f257600080fd5b8063240be9441461010a57806324a5a2ce1461014a57806327e235e31461015f5780633a4b66f11461018c5780633ba86c44146101965780633ccfd60b146101ac57600080fd5b3661010557604080513381523460208201527f88a5966d370b9919b20f3e2c13ff65706f196a4e32cc2c12bf57088f88525874910160405180910390a1005b600080fd5b34801561011657600080fd5b50610137610125366004610838565b60016020526000908152604090205481565b6040519081526020015b60405180910390f35b34801561015657600080fd5b50610137610281565b34801561016b57600080fd5b5061013761017a366004610838565b60006020819052908152604090205481565b6101946102a5565b005b3480156101a257600080fd5b5061013760035481565b3480156101b857600080fd5b506101946103d2565b3480156101cd57600080fd5b5061013767016345785d8a000081565b3480156101e957600080fd5b5061019461069e565b3480156101fe57600080fd5b50600554610212906001600160a01b031681565b6040516001600160a01b039091168152602001610141565b34801561023657600080fd5b5061019442600455565b34801561024c57600080fd5b5061013760025481565b34801561026257600080fd5b5061013760045481565b34801561027857600080fd5b50610137610819565b600060035442106102925750600090565b426003546102a091906109bb565b905090565b6000806102b0610819565b905081156102e45780156102df5760405162461bcd60e51b81526004016102d690610940565b60405180910390fd5b610304565b600081116103045760405162461bcd60e51b81526004016102d690610886565b60008061030f610281565b9050811561033a5780156103355760405162461bcd60e51b81526004016102d6906108c8565b61035a565b6000811161035a5760405162461bcd60e51b81526004016102d690610909565b33600090815260208190526040902054610375903490610984565b33600081815260208181526040808320949094556001905282902042905590517febedb8b3c678666e7f36970bc8f57abf6d8fa2e828c0da91ea5b75bf68ed101a906103c49034815260200190565b60405180910390a250505050565b600160006103de610819565b905081156104095780156104045760405162461bcd60e51b81526004016102d690610940565b610429565b600081116104295760405162461bcd60e51b81526004016102d690610886565b600080610434610281565b9050811561045f57801561045a5760405162461bcd60e51b81526004016102d6906108c8565b61047f565b6000811161047f5760405162461bcd60e51b81526004016102d690610909565b60055460408051639d9a7fe960e01b815290516000926001600160a01b031691639d9a7fe9916004808301926020929190829003018186803b1580156104c457600080fd5b505afa1580156104d8573d6000803e3d6000fd5b505050506040513d601f19601f820116820180604052508101906104fc9190610866565b905080156105475760405162461bcd60e51b81526020600482015260186024820152775374616b6520616c726561647920636f6d706c657465642160401b60448201526064016102d6565b336000908152602081905260409020546105a35760405162461bcd60e51b815260206004820181905260248201527f596f752068617665206e6f2062616c616e636520746f2077697468647261772160448201526064016102d6565b3360009081526020818152604080832054600190925282205490919067016345785d8a0000906105d390426109bb565b6105dd919061099c565b6105e79083610984565b33600081815260208190526040808220829055519293509182919084908381818185875af1925050503d806000811461063c576040519150601f19603f3d011682016040523d82523d6000602084013e610641565b606091505b5091509150816106935760405162461bcd60e51b815260206004820152601a60248201527f5249503b207769746864726177616c206661696c6564203a282000000000000060448201526064016102d6565b505050505050505050565b600160006106aa610281565b905081156106d55780156106d05760405162461bcd60e51b81526004016102d6906108c8565b6106f5565b600081116106f55760405162461bcd60e51b81526004016102d690610909565b60055460408051639d9a7fe960e01b815290516000926001600160a01b031691639d9a7fe9916004808301926020929190829003018186803b15801561073a57600080fd5b505afa15801561074e573d6000803e3d6000fd5b505050506040513d601f19601f820116820180604052508101906107729190610866565b905080156107bd5760405162461bcd60e51b81526020600482015260186024820152775374616b6520616c726561647920636f6d706c657465642160401b60448201526064016102d6565b6005546040805163522e117760e01b8152905147926001600160a01b03169163522e117791479160048082019260009290919082900301818588803b15801561080557600080fd5b505af1158015610693573d6000803e3d6000fd5b6000600254421061082a5750600090565b426002546102a091906109bb565b600060208284031215610849578081fd5b81356001600160a01b038116811461085f578182fd5b9392505050565b600060208284031215610877578081fd5b8151801515811461085f578182fd5b60208082526022908201527f5769746864726177616c20706572696f6420686173206265656e207265616368604082015261195960f21b606082015260800190565b60208082526021908201527f436c61696d20646561646c696e65206973206e6f7420726561636865642079656040820152601d60fa1b606082015260800190565b6020808252601f908201527f436c61696d20646561646c696e6520686173206265656e207265616368656400604082015260600190565b60208082526024908201527f5769746864726177616c20706572696f64206973206e6f742072656163686564604082015263081e595d60e21b606082015260800190565b60008219821115610997576109976109d2565b500190565b60008160001904831182151516156109b6576109b66109d2565b500290565b6000828210156109cd576109cd6109d2565b500390565b634e487b7160e01b600052601160045260246000fdfea26469706673582212201367d57ffbea5416c6c7b42764b2b7d9f25f54731e31b010aa15e657392cb3e764736f6c63430008040033",
  "linkReferences": {},
  "deployedLinkReferences": {}
}